{
    "_format": "hh-sol-artifact-1",
    "contractName": "healthDataMarket",
    "sourceName": "contracts/healthDataMarket.sol",
    "abi": [
        {
            "inputs": [],
            "name": "InvalidInitialization",
            "type": "error"
        },
        {
            "inputs": [],
            "name": "NotInitializing",
            "type": "error"
        },
        {
            "anonymous": false,
            "inputs": [
                {
                    "indexed": false,
                    "internalType": "string",
                    "name": "name",
                    "type": "string"
                },
                {
                    "indexed": false,
                    "internalType": "uint256",
                    "name": "cost",
                    "type": "uint256"
                },
                {
                    "indexed": false,
                    "internalType": "string",
                    "name": "data",
                    "type": "string"
                }
            ],
            "name": "AddData",
            "type": "event"
        },
        {
            "anonymous": false,
            "inputs": [
                {
                    "indexed": false,
                    "internalType": "address",
                    "name": "buyer",
                    "type": "address"
                },
                {
                    "indexed": false,
                    "internalType": "uint256",
                    "name": "orderId",
                    "type": "uint256"
                },
                {
                    "indexed": false,
                    "internalType": "uint256",
                    "name": "dataId",
                    "type": "uint256"
                }
            ],
            "name": "Buy",
            "type": "event"
        },
        {
            "anonymous": false,
            "inputs": [
                {
                    "indexed": false,
                    "internalType": "uint64",
                    "name": "version",
                    "type": "uint64"
                }
            ],
            "name": "Initialized",
            "type": "event"
        },
        {
            "inputs": [
                {
                    "internalType": "uint256",
                    "name": "_id",
                    "type": "uint256"
                }
            ],
            "name": "access",
            "outputs": [
                {
                    "internalType": "string",
                    "name": "",
                    "type": "string"
                },
                {
                    "internalType": "string",
                    "name": "",
                    "type": "string"
                },
                {
                    "internalType": "string",
                    "name": "",
                    "type": "string"
                },
                {
                    "internalType": "uint256",
                    "name": "",
                    "type": "uint256"
                },
                {
                    "internalType": "address",
                    "name": "",
                    "type": "address"
                }
            ],
            "stateMutability": "view",
            "type": "function"
        },
        {
            "inputs": [
                {
                    "internalType": "uint256",
                    "name": "_id",
                    "type": "uint256"
                },
                {
                    "internalType": "string",
                    "name": "_name",
                    "type": "string"
                },
                {
                    "internalType": "string",
                    "name": "_category",
                    "type": "string"
                },
                {
                    "internalType": "string",
                    "name": "_data",
                    "type": "string"
                },
                {
                    "internalType": "uint256",
                    "name": "_cost",
                    "type": "uint256"
                }
            ],
            "name": "addData",
            "outputs": [],
            "stateMutability": "nonpayable",
            "type": "function"
        },
        {
            "inputs": [
                {
                    "internalType": "uint256",
                    "name": "_id",
                    "type": "uint256"
                }
            ],
            "name": "buy",
            "outputs": [],
            "stateMutability": "payable",
            "type": "function"
        },
        {
            "inputs": [
                {
                    "internalType": "uint256",
                    "name": "",
                    "type": "uint256"
                }
            ],
            "name": "dataItems",
            "outputs": [
                {
                    "internalType": "uint256",
                    "name": "dataId",
                    "type": "uint256"
                },
                {
                    "internalType": "string",
                    "name": "category",
                    "type": "string"
                },
                {
                    "internalType": "string",
                    "name": "name",
                    "type": "string"
                },
                {
                    "internalType": "string",
                    "name": "data",
                    "type": "string"
                },
                {
                    "internalType": "uint256",
                    "name": "cost",
                    "type": "uint256"
                },
                {
                    "internalType": "address",
                    "name": "user",
                    "type": "address"
                }
            ],
            "stateMutability": "view",
            "type": "function"
        },
        {
            "inputs": [],
            "name": "initialize",
            "outputs": [],
            "stateMutability": "nonpayable",
            "type": "function"
        },
        {
            "inputs": [
                {
                    "internalType": "address",
                    "name": "",
                    "type": "address"
                }
            ],
            "name": "orderCount",
            "outputs": [
                {
                    "internalType": "uint256",
                    "name": "",
                    "type": "uint256"
                }
            ],
            "stateMutability": "view",
            "type": "function"
        },
        {
            "inputs": [
                {
                    "internalType": "address",
                    "name": "",
                    "type": "address"
                },
                {
                    "internalType": "uint256",
                    "name": "",
                    "type": "uint256"
                }
            ],
            "name": "orders",
            "outputs": [
                {
                    "internalType": "uint256",
                    "name": "time",
                    "type": "uint256"
                },
                {
                    "components": [
                        {
                            "internalType": "uint256",
                            "name": "dataId",
                            "type": "uint256"
                        },
                        {
                            "internalType": "string",
                            "name": "category",
                            "type": "string"
                        },
                        {
                            "internalType": "string",
                            "name": "name",
                            "type": "string"
                        },
                        {
                            "internalType": "string",
                            "name": "data",
                            "type": "string"
                        },
                        {
                            "internalType": "uint256",
                            "name": "cost",
                            "type": "uint256"
                        },
                        {
                            "internalType": "address",
                            "name": "user",
                            "type": "address"
                        }
                    ],
                    "internalType": "struct healthDataMarket.DataItem",
                    "name": "item",
                    "type": "tuple"
                }
            ],
            "stateMutability": "view",
            "type": "function"
        },
        {
            "inputs": [],
            "name": "owner",
            "outputs": [
                {
                    "internalType": "address",
                    "name": "",
                    "type": "address"
                }
            ],
            "stateMutability": "view",
            "type": "function"
        },
        {
            "inputs": [],
            "name": "withdraw",
            "outputs": [],
            "stateMutability": "nonpayable",
            "type": "function"
        }
    ],
    "bytecode": "0x608060405234801561001057600080fd5b50611eaa806100206000396000f3fe6080604052600436106100865760003560e01c8063803ad4de11610059578063803ad4de146101465780638129fc1c146101875780638da5cb5b1461019e578063968a76cf146101c9578063d96a094a1461020b57610086565b80633ccfd60b1461008b5780636ca693b7146100a2578063713d856b146100cb578063793b8c6d14610108575b600080fd5b34801561009757600080fd5b506100a0610227565b005b3480156100ae57600080fd5b506100c960048036038101906100c49190611474565b61034f565b005b3480156100d757600080fd5b506100f260048036038101906100ed91906115a1565b6104e5565b6040516100ff91906115dd565b60405180910390f35b34801561011457600080fd5b5061012f600480360381019061012a91906115f8565b6104fd565b60405161013d92919061176c565b60405180910390f35b34801561015257600080fd5b5061016d6004803603810190610168919061179c565b610758565b60405161017e959493929190611822565b60405180910390f35b34801561019357600080fd5b5061019c6109cf565b005b3480156101aa57600080fd5b506101b3610b94565b6040516101c0919061188a565b60405180910390f35b3480156101d557600080fd5b506101f060048036038101906101eb919061179c565b610bb8565b604051610202969594939291906118a5565b60405180910390f35b6102256004803603810190610220919061179c565b610dac565b005b60008054906101000a900473ffffffffffffffffffffffffffffffffffffffff1673ffffffffffffffffffffffffffffffffffffffff163373ffffffffffffffffffffffffffffffffffffffff161461027f57600080fd5b60008060009054906101000a900473ffffffffffffffffffffffffffffffffffffffff1673ffffffffffffffffffffffffffffffffffffffff16476040516102c69061194c565b60006040518083038185875af1925050503d8060008114610303576040519150601f19603f3d011682016040523d82523d6000602084013e610308565b606091505b505090508061034c576040517f08c379a0000000000000000000000000000000000000000000000000000000008152600401610343906119ad565b60405180910390fd5b50565b60008054906101000a900473ffffffffffffffffffffffffffffffffffffffff1673ffffffffffffffffffffffffffffffffffffffff163373ffffffffffffffffffffffffffffffffffffffff16146103a757600080fd5b60006040518060c001604052808781526020018581526020018681526020018481526020018381526020013373ffffffffffffffffffffffffffffffffffffffff16815250905080600160008881526020019081526020016000206000820151816000015560208201518160010190816104219190611bd9565b5060408201518160020190816104379190611bd9565b50606082015181600301908161044d9190611bd9565b506080820151816004015560a08201518160050160006101000a81548173ffffffffffffffffffffffffffffffffffffffff021916908373ffffffffffffffffffffffffffffffffffffffff1602179055509050507f4be562e8c2ca75517478f22c39383d9dff279287f62bac3eb7e9b1600cbe08558583856040516104d593929190611cab565b60405180910390a1505050505050565b60026020528060005260406000206000915090505481565b600360205281600052604060002060205280600052604060002060009150915050806000015490806001016040518060c00160405290816000820154815260200160018201805461054d906119fc565b80601f0160208091040260200160405190810160405280929190818152602001828054610579906119fc565b80156105c65780601f1061059b576101008083540402835291602001916105c6565b820191906000526020600020905b8154815290600101906020018083116105a957829003601f168201915b505050505081526020016002820180546105df906119fc565b80601f016020809104026020016040519081016040528092919081815260200182805461060b906119fc565b80156106585780601f1061062d57610100808354040283529160200191610658565b820191906000526020600020905b81548152906001019060200180831161063b57829003601f168201915b50505050508152602001600382018054610671906119fc565b80601f016020809104026020016040519081016040528092919081815260200182805461069d906119fc565b80156106ea5780601f106106bf576101008083540402835291602001916106ea565b820191906000526020600020905b8154815290600101906020018083116106cd57829003601f168201915b50505050508152602001600482015481526020016005820160009054906101000a900473ffffffffffffffffffffffffffffffffffffffff1673ffffffffffffffffffffffffffffffffffffffff1673ffffffffffffffffffffffffffffffffffffffff1681525050905082565b60608060606000806000600160008881526020019081526020016000206040518060c00160405290816000820154815260200160018201805461079a906119fc565b80601f01602080910402602001604051908101604052809291908181526020018280546107c6906119fc565b80156108135780601f106107e857610100808354040283529160200191610813565b820191906000526020600020905b8154815290600101906020018083116107f657829003601f168201915b5050505050815260200160028201805461082c906119fc565b80601f0160208091040260200160405190810160405280929190818152602001828054610858906119fc565b80156108a55780601f1061087a576101008083540402835291602001916108a5565b820191906000526020600020905b81548152906001019060200180831161088857829003601f168201915b505050505081526020016003820180546108be906119fc565b80601f01602080910402602001604051908101604052809291908181526020018280546108ea906119fc565b80156109375780601f1061090c57610100808354040283529160200191610937565b820191906000526020600020905b81548152906001019060200180831161091a57829003601f168201915b50505050508152602001600482015481526020016005820160009054906101000a900473ffffffffffffffffffffffffffffffffffffffff1673ffffffffffffffffffffffffffffffffffffffff1673ffffffffffffffffffffffffffffffffffffffff1681525050905080602001518160400151826060015183608001518460a00151955095509550955095505091939590929450565b60006109d96112bc565b905060008160000160089054906101000a900460ff1615905060008260000160009054906101000a900467ffffffffffffffff1690506000808267ffffffffffffffff16148015610a275750825b9050600060018367ffffffffffffffff16148015610a5c575060003073ffffffffffffffffffffffffffffffffffffffff163b145b905081158015610a6a575080155b15610aa1576040517ff92ee8a900000000000000000000000000000000000000000000000000000000815260040160405180910390fd5b60018560000160006101000a81548167ffffffffffffffff021916908367ffffffffffffffff1602179055508315610af15760018560000160086101000a81548160ff0219169083151502179055505b336000806101000a81548173ffffffffffffffffffffffffffffffffffffffff021916908373ffffffffffffffffffffffffffffffffffffffff1602179055508315610b8d5760008560000160086101000a81548160ff0219169083151502179055507fc7f505b2f371ae2175ee4913f4499e1f2633a7b5936321eed1cdaeb6115181d26001604051610b849190611d3f565b60405180910390a15b5050505050565b60008054906101000a900473ffffffffffffffffffffffffffffffffffffffff1681565b6001602052806000526040600020600091509050806000015490806001018054610be1906119fc565b80601f0160208091040260200160405190810160405280929190818152602001828054610c0d906119fc565b8015610c5a5780601f10610c2f57610100808354040283529160200191610c5a565b820191906000526020600020905b815481529060010190602001808311610c3d57829003601f168201915b505050505090806002018054610c6f906119fc565b80601f0160208091040260200160405190810160405280929190818152602001828054610c9b906119fc565b8015610ce85780601f10610cbd57610100808354040283529160200191610ce8565b820191906000526020600020905b815481529060010190602001808311610ccb57829003601f168201915b505050505090806003018054610cfd906119fc565b80601f0160208091040260200160405190810160405280929190818152602001828054610d29906119fc565b8015610d765780601f10610d4b57610100808354040283529160200191610d76565b820191906000526020600020905b815481529060010190602001808311610d5957829003601f168201915b5050505050908060040154908060050160009054906101000a900473ffffffffffffffffffffffffffffffffffffffff16905086565b6000600160008381526020019081526020016000206040518060c001604052908160008201548152602001600182018054610de6906119fc565b80601f0160208091040260200160405190810160405280929190818152602001828054610e12906119fc565b8015610e5f5780601f10610e3457610100808354040283529160200191610e5f565b820191906000526020600020905b815481529060010190602001808311610e4257829003601f168201915b50505050508152602001600282018054610e78906119fc565b80601f0160208091040260200160405190810160405280929190818152602001828054610ea4906119fc565b8015610ef15780601f10610ec657610100808354040283529160200191610ef1565b820191906000526020600020905b815481529060010190602001808311610ed457829003601f168201915b50505050508152602001600382018054610f0a906119fc565b80601f0160208091040260200160405190810160405280929190818152602001828054610f36906119fc565b8015610f835780601f10610f5857610100808354040283529160200191610f83565b820191906000526020600020905b815481529060010190602001808311610f6657829003601f168201915b50505050508152602001600482015481526020016005820160009054906101000a900473ffffffffffffffffffffffffffffffffffffffff1673ffffffffffffffffffffffffffffffffffffffff1673ffffffffffffffffffffffffffffffffffffffff168152505090508060800151341015611035576040517f08c379a000000000000000000000000000000000000000000000000000000000815260040161102c90611da6565b60405180910390fd5b60006040518060400160405280428152602001838152509050600260003373ffffffffffffffffffffffffffffffffffffffff1673ffffffffffffffffffffffffffffffffffffffff168152602001908152602001600020600081548092919061109e90611df5565b919050555080600360003373ffffffffffffffffffffffffffffffffffffffff1673ffffffffffffffffffffffffffffffffffffffff1681526020019081526020016000206000600260003373ffffffffffffffffffffffffffffffffffffffff1673ffffffffffffffffffffffffffffffffffffffff168152602001908152602001600020548152602001908152602001600020600082015181600001556020820151816001016000820151816000015560208201518160010190816111659190611bd9565b50604082015181600201908161117b9190611bd9565b5060608201518160030190816111919190611bd9565b506080820151816004015560a08201518160050160006101000a81548173ffffffffffffffffffffffffffffffffffffffff021916908373ffffffffffffffffffffffffffffffffffffffff160217905550505090505060008260a0015190508073ffffffffffffffffffffffffffffffffffffffff166108fc84608001519081150290604051600060405180830381858888f1935050505015801561123b573d6000803e3d6000fd5b507f1cbc5ab135991bd2b6a4b034a04aa2aa086dac1371cb9b16b8b5e2ed6b036bed33600260003373ffffffffffffffffffffffffffffffffffffffff1673ffffffffffffffffffffffffffffffffffffffff16815260200190815260200160002054866040516112ae93929190611e3d565b60405180910390a150505050565b60007ff0c57e16840df040f15088dc2f81fe391c3923bec73e23a9662efc9c229c6a00905090565b6000604051905090565b600080fd5b600080fd5b6000819050919050565b61130b816112f8565b811461131657600080fd5b50565b60008135905061132881611302565b92915050565b600080fd5b600080fd5b6000601f19601f8301169050919050565b7f4e487b7100000000000000000000000000000000000000000000000000000000600052604160045260246000fd5b61138182611338565b810181811067ffffffffffffffff821117156113a05761139f611349565b5b80604052505050565b60006113b36112e4565b90506113bf8282611378565b919050565b600067ffffffffffffffff8211156113df576113de611349565b5b6113e882611338565b9050602081019050919050565b82818337600083830152505050565b6000611417611412846113c4565b6113a9565b90508281526020810184848401111561143357611432611333565b5b61143e8482856113f5565b509392505050565b600082601f83011261145b5761145a61132e565b5b813561146b848260208601611404565b91505092915050565b600080600080600060a086880312156114905761148f6112ee565b5b600061149e88828901611319565b955050602086013567ffffffffffffffff8111156114bf576114be6112f3565b5b6114cb88828901611446565b945050604086013567ffffffffffffffff8111156114ec576114eb6112f3565b5b6114f888828901611446565b935050606086013567ffffffffffffffff811115611519576115186112f3565b5b61152588828901611446565b925050608061153688828901611319565b9150509295509295909350565b600073ffffffffffffffffffffffffffffffffffffffff82169050919050565b600061156e82611543565b9050919050565b61157e81611563565b811461158957600080fd5b50565b60008135905061159b81611575565b92915050565b6000602082840312156115b7576115b66112ee565b5b60006115c58482850161158c565b91505092915050565b6115d7816112f8565b82525050565b60006020820190506115f260008301846115ce565b92915050565b6000806040838503121561160f5761160e6112ee565b5b600061161d8582860161158c565b925050602061162e85828601611319565b9150509250929050565b611641816112f8565b82525050565b600081519050919050565b600082825260208201905092915050565b60005b83811015611681578082015181840152602081019050611666565b60008484015250505050565b600061169882611647565b6116a28185611652565b93506116b2818560208601611663565b6116bb81611338565b840191505092915050565b6116cf81611563565b82525050565b600060c0830160008301516116ed6000860182611638565b5060208301518482036020860152611705828261168d565b9150506040830151848203604086015261171f828261168d565b91505060608301518482036060860152611739828261168d565b915050608083015161174e6080860182611638565b5060a083015161176160a08601826116c6565b508091505092915050565b600060408201905061178160008301856115ce565b818103602083015261179381846116d5565b90509392505050565b6000602082840312156117b2576117b16112ee565b5b60006117c084828501611319565b91505092915050565b600082825260208201905092915050565b60006117e582611647565b6117ef81856117c9565b93506117ff818560208601611663565b61180881611338565b840191505092915050565b61181c81611563565b82525050565b600060a082019050818103600083015261183c81886117da565b9050818103602083015261185081876117da565b9050818103604083015261186481866117da565b905061187360608301856115ce565b6118806080830184611813565b9695505050505050565b600060208201905061189f6000830184611813565b92915050565b600060c0820190506118ba60008301896115ce565b81810360208301526118cc81886117da565b905081810360408301526118e081876117da565b905081810360608301526118f481866117da565b905061190360808301856115ce565b61191060a0830184611813565b979650505050505050565b600081905092915050565b50565b600061193660008361191b565b915061194182611926565b600082019050919050565b600061195782611929565b9150819050919050565b7f5769746864726177616c206661696c6564000000000000000000000000000000600082015250565b60006119976011836117c9565b91506119a282611961565b602082019050919050565b600060208201905081810360008301526119c68161198a565b9050919050565b7f4e487b7100000000000000000000000000000000000000000000000000000000600052602260045260246000fd5b60006002820490506001821680611a1457607f821691505b602082108103611a2757611a266119cd565b5b50919050565b60008190508160005260206000209050919050565b60006020601f8301049050919050565b600082821b905092915050565b600060088302611a8f7fffffffffffffffffffffffffffffffffffffffffffffffffffffffffffffffff82611a52565b611a998683611a52565b95508019841693508086168417925050509392505050565b6000819050919050565b6000611ad6611ad1611acc846112f8565b611ab1565b6112f8565b9050919050565b6000819050919050565b611af083611abb565b611b04611afc82611add565b848454611a5f565b825550505050565b600090565b611b19611b0c565b611b24818484611ae7565b505050565b5b81811015611b4857611b3d600082611b11565b600181019050611b2a565b5050565b601f821115611b8d57611b5e81611a2d565b611b6784611a42565b81016020851015611b76578190505b611b8a611b8285611a42565b830182611b29565b50505b505050565b600082821c905092915050565b6000611bb060001984600802611b92565b1980831691505092915050565b6000611bc98383611b9f565b9150826002028217905092915050565b611be282611647565b67ffffffffffffffff811115611bfb57611bfa611349565b5b611c0582546119fc565b611c10828285611b4c565b600060209050601f831160018114611c435760008415611c31578287015190505b611c3b8582611bbd565b865550611ca3565b601f198416611c5186611a2d565b60005b82811015611c7957848901518255600182019150602085019450602081019050611c54565b86831015611c965784890151611c92601f891682611b9f565b8355505b6001600288020188555050505b505050505050565b60006060820190508181036000830152611cc581866117da565b9050611cd460208301856115ce565b8181036040830152611ce681846117da565b9050949350505050565b6000819050919050565b600067ffffffffffffffff82169050919050565b6000611d29611d24611d1f84611cf0565b611ab1565b611cfa565b9050919050565b611d3981611d0e565b82525050565b6000602082019050611d546000830184611d30565b92915050565b7f496e73756666696369656e742066756e64730000000000000000000000000000600082015250565b6000611d906012836117c9565b9150611d9b82611d5a565b602082019050919050565b60006020820190508181036000830152611dbf81611d83565b9050919050565b7f4e487b7100000000000000000000000000000000000000000000000000000000600052601160045260246000fd5b6000611e00826112f8565b91507fffffffffffffffffffffffffffffffffffffffffffffffffffffffffffffffff8203611e3257611e31611dc6565b5b600182019050919050565b6000606082019050611e526000830186611813565b611e5f60208301856115ce565b611e6c60408301846115ce565b94935050505056fea2646970667358221220e575b9180a00d22096feee3c88682368aa13de522d8ef2cb5f36adb6f53b09dc64736f6c63430008140033",
    "linkReferences": {},
    "deployedLinkReferences": {}
}